:020000040000FA
:040000003AEF00F0E3
:100008005782D9CF06F0DACF07F0F2AC0EEF00F046
:1000180010EF00F034EF00F0A0A615EF00F017EF96
:1000280000F022EF00F0A1A61CEF00F01EEF00F098
:1000380022EF00F0E8EC10F034EF00F09DA627EF77
:1000480000F029EF00F034EF00F09EA62EEF00F04C
:1000580030EF00F034EF00F00BEC08F034EF00F074
:1000680007C0DAFF06C0D9FF579211008CEF10F0D5
:101000000054656D70657261747572653D2025646C
:1010100020430D0A00009E96C6AE11EF08F013EFB4
:1010200008F060EF09F0C69E000E546E000120EE3D
:1010300003F06F51D9267051DA22DECF04F0DDCFF4
:1010400005F004C0D9FF05C0DAFF010EDF6E000E07
:101050006F6F000E706F99EF09F0000164B333EF0A
:1010600008F035EF08F099EF09F062C06FF063C047
:1010700070F062C0D9FF63C0DAFFDF50536E20EE1C
:1010800001F06251D9266351DA22DECF71F0DDCF53
:1010900072F0050E6227000E6323A40E621907E1A9
:1010A000000E6319D8A457EF08F059EF08F05DEF70
:1010B00008F09F0E626F000E636F649160516219B9
:1010C00007E161516319D8A468EF08F06AEF08F0EE
:1010D0006BEF08F06483C580020E546E99EF09F03F
:1010E000C5826CEF08F0C5AC78EF08F07AEF08F035
:1010F00081EF08F00001662B040E7BEC0FF099EFF6
:1011000009F0D8905630056E5530046E0450C96E03
:1011100055A08DEF08F08FEF08F093EF08F00B0E5D
:10112000546E99EF09F0030E546E99EF09F0C5ACB7
:101130009CEF08F09EEF08F0A5EF08F00001662B89
:10114000040E7BEC0FF099EF09F0C58255C004F056
:1011500056C005F005C004F0056A060E0416000E20
:101160000516F00E0410556E0550566E5580010E92
:10117000516E6CEF08F05104D8B4C1EF08F0C3EF22
:1011800008F0DEEF08F071C0D9FF72C0DAFFDECFE1
:1011900055F0DDCF56F0000120EE03F07151D92655
:1011A0007251DA22DECF6DF0DDCF6EF020EE02F06C
:1011B0007151D9267251DA22DF50526E55C0C9FFE3
:1011C00055A0E5EF08F0E7EF08F093EF08F0050E03
:1011D000546E99EF09F0C5ACF0EF08F0F2EF08F0AB
:1011E000FAEF08F00001662BC59C050E7BEC0FF0B2
:1011F00099EF09F052065228D8A401EF09F003EF45
:1012000009F013EF09F0050E00017127000E72239B
:10121000532E10EF09F0000E7BEC0FF099EF09F060
:10122000C5826CEF08F06DC0D9FF6EC0DAFFDF50E9
:10123000C96E00016D4B6E2B99EF09F0C5AC23EF21
:1012400009F025EF09F02DEF09F00001662B040EDF
:101250007BEC0FF0C59C99EF09F0C586080E546E23
:1012600099EF09F0080E546EC58699EF09F06DC02C
:10127000D9FF6EC0DAFFC9CFDFFF00016D4B6E2BC7
:10128000010E525ED8B447EF09F049EF09F04EEF76
:1012900009F0C59A060E546E51EF09F0C58A9DEC0F
:1012A00010F0C58899EF09F0000E7BEC0FF099EF74
:1012B00009F00001662B060E7BEC0FF099EF09F0A8
:1012C0005450046E056A0550000AD8B46AEF09F05C
:1012D00059EF09F00450000AD8B42DEF08F0010AC4
:1012E000D8B470EF08F0030AD8B4BBEF08F0010AD5
:1012F000D8B4EBEF08F0070AD8B454EF09F0010AAC
:10130000D8B41EEF09F0030AD8B432EF09F0010A8D
:10131000D8B454EF09F00F0AD8B437EF09F0020A35
:10132000D8B473EF08F0010AD8B497EF08F059EF7A
:1013300009F0120027C03FF028C040F029C041F05A
:101340002AC042F02BC043F02CC044F02DC045F021
:101350002EC046F046BEAFEF09F0B2EF09F0010E25
:10136000B3EF09F0000E3D6E3E6A3D503E10D8B41A
:10137000BCEF09F0BEEF09F0CEEF09F0461E451EA6
:10138000441E431E421E411E401E3F6C000E402262
:1013900041224222432244224522462200016CBFC0
:1013A000D4EF09F0D6EF09F0D7EF09F04F926CBFF8
:1013B000E4EF09F06C5106E16B05D8B0E2EF09F0FB
:1013C000E4EF09F0EAEF09F0000E3A6E010E396E13
:1013D000EEEF09F06BC039F06CC03AF069C03BF039
:1013E0006AC03CF03D503E10D8A4F9EF09F0FBEF85
:1013F00009F002EF0AF04FA400EF0AF002EF0AF042
:1014000005EF0AF03B06D8A03C06000E486E1F0E02
:10141000476E000E946F89EF0AF04706D8A0480681
:10142000750E4724D96E000E4820DA6E3FC008F0D2
:1014300040C009F041C00AF042C00BF043C00CF0BC
:1014400044C00DF045C00EF046C00FF00A0E106EFD
:10145000000E116E000E126E000E136E000E146E52
:10146000000E156E000E166E000E176EACEC0CF032
:1014700008C02FF009C030F00AC031F00BC032F0C4
:101480000CC033F00DC034F00EC035F00FC036F094
:101490002FC01AF031C01BF0E4EC0FF01A50300FDF
:1014A000DF6E3906D8A03A063B06D8A03C063FC0FE
:1014B00008F040C009F041C00AF042C00BF043C040
:1014C0000CF044C00DF045C00EF046C00FF00A0EFF
:1014D000106E000E116E000E126E000E136E000ED6
:1014E000146E000E156E000E166E000E176EE8ECF0
:1014F0000BF008C03FF009C040F00AC041F00BC03B
:1015000042F00CC043F00DC044F00EC045F00FC0D7
:1015100046F048BE94EF0AF0485008E14704D8A0CE
:1015200094EF0AF096EF0AF0C6EF0AF03F50401031
:10153000411042104310441045104610D8A4A3EFA8
:101540000AF0A5EF0AF00DEF0AF03ABEB2EF0AF08A
:101550003A5006E13904D8B0B0EF0AF0B2EF0AF021
:101560000DEF0AF03CBEBDEF0AF03C5008E13B0431
:10157000D8A0BDEF0AF0BFEF0AF0C6EF0AF04FB2F5
:10158000C4EF0AF0C6EF0AF00DEF0AF03D503E102E
:10159000D8A4CDEF0AF0CFEF0AF0D6EF0AF04FA4AF
:1015A000D4EF0AF0D6EF0AF0F4EF0AF04706D8A01D
:1015B00048063D503E10D8A4E0EF0AF0E2EF0AF0F2
:1015C000E8EF0AF0000E386E2B0E376EECEF0AF0E3
:1015D000000E386E2D0E376E750E4724D96E000E34
:1015E0004820DA6E37C0DFFF25C01AF026C01BF096
:1015F000750E47241C6E000E48201D6E3BC01EF069
:101600003CC01FF0C2EC0DF01AC025F01BC026F044
:1016100012004BC0D9FF4CC0DAFFDECFF6FFDDCFA2
:10162000F7FFF86A0800F550250AD8A41AEF0BF066
:101630001CEF0BF0CBEF0BF04BC0D9FF4CC0DAFF27
:10164000DE2A000EDD22000E00016A6F000E696FB7
:1016500069C04FF06AC050F06B696C694BC0D9FF2C
:101660004CC0DAFFDECFF6FFDDCFF7FFF86A0800E7
:10167000F550640AD8B43FEF0BF041EF0BF054EF94
:101680000BF04BC0D9FF4CC0DAFFDECFF6FFDDCF49
:10169000F7FFF86A0800F550690AD8A452EF0BF07A
:1016A00054EF0BF094EF0BF04BC0D9FF4CC0DAFFB6
:1016B000DE2A000EDD224DC0D9FF4EC0DAFFDFCF9B
:1016C000A4F0020EDE26DFCFA5F0000EDD22A4C0BE
:1016D000D9FFA5C0DAFFDECFA6F0DDCFA7F0000E60
:1016E000A7BFFF0EA86FA96FAA6FAB6FAC6FAD6FEE
:1016F00049C025F04AC026F0A6C027F0A7C028F0B0
:10170000A8C029F0A9C02AF0AAC02BF0ABC02CF0C9
:10171000ACC02DF0ADC02EF09AEC09F025C049F018
:1017200026C04AF0E7EF0BF04BC0D9FF4CC0DAFF00
:10173000DECFF6FFDDCFF7FFF86A0800F550250A87
:10174000D8A4A5EF0BF0A7EF0BF0BEEF0BF04BC04A
:10175000D9FF4CC0DAFFDE2A000EDD22000E0B6E30
:10176000250E0A6E49C00CF04AC00DF023EC0EF0B5
:10177000000E4A6E010E496EE7EF0BF04BC0D9FF29
:101780004CC0DAFFDE2A000EDD22000E4A6E000E8B
:10179000496EE7EF0BF04BC0D9FF4CC0DAFFDECF4C
:1017A000F6FFDDCFF7FFF86A0800F5500A6E0B6A06
:1017B00049C00CF04AC00DF023EC0EF04BC0D9FF2D
:1017C0004CC0DAFFDE2A000EDD22B8EF0BF012006B
:1017D000000E196E17BEF1EF0BF0EFEF0BF003EFF9
:1017E0000CF0171E161E151E141E131E121E111E9F
:1017F000106C000E1122122213221422152216221E
:101800001722010E196E0FBE0AEF0CF008EF0CF054
:101810001CEF0CF00F1E0E1E0D1E0C1E0B1E0A1EC2
:10182000091E086C000E09220A220B220C220D222E
:101830000E220F22010E191A20EE1AF0070EDE6A90
:10184000E806FDE2105011101210131014101510BC
:1018500016101710D8B42FEF0CF031EF0CF083EF07
:101860000CF0010E186E3FEF0CF0D89010361136C8
:10187000123613361436153616361736182A17AEA2
:1018800044EF0CF046EF0CF035EF0CF0D8901A3620
:101890001B361C361D361E361F362036213610509C
:1018A000085C1150095812500A5813500B58145024
:1018B0000C5815500D5816500E5817500F58D8A0E8
:1018C00064EF0CF066EF0CF077EF0CF01050085E50
:1018D0001150095A12500A5A13500B5A14500C5AEC
:1018E00015500D5A16500E5A17500F5A1A80D8908C
:1018F00017321632153214321332123211321032BC
:10190000182E46EF0CF01950D8B489EF0CF08BEF7D
:101910000CF09BEF0CF0211E201E1F1E1E1E1D1E14
:101920001C1E1B1E1A6C000E1B221C221D221E22B6
:101930001F22202221221AC008F01BC009F01CC05F
:101940000AF01DC00BF01EC00CF01FC00DF020C02F
:101950000EF021C00FF01200000E196E0FBEB5EF91
:101960000CF0B3EF0CF0C7EF0CF00F1E0E1E0D1EA7
:101970000C1E0B1E0A1E091E086C000E09220A22EC
:101980000B220C220D220E220F22010E196E17BE01
:10199000CEEF0CF0CCEF0CF0DEEF0CF0171E161EA5
:1019A000151E141E131E121E111E106C000E112285
:1019B000122213221422152216221722105011105F
:1019C000121013101410151016101710D8B4EBEFD6
:1019D0000CF0EDEF0CF035EF0DF0010E186EFBEF93
:1019E0000CF0D890103611361236133614361536E0
:1019F00016361736182A17AE00EF0DF002EF0DF06D
:101A0000F1EF0CF01050085C1150095812500A58B0
:101A100013500B5814500C5815500D5816500E58A2
:101A200017500F58D8A017EF0DF019EF0DF029EF50
:101A30000DF01050085E1150095A12500A5A1350F6
:101A40000B5A14500C5A15500D5A16500E5A175066
:101A50000F5AD8901732163215321432133212320E
:101A600011321032182E02EF0DF01950D8B43BEF9E
:101A70000DF03DEF0DF04DEF0DF00F1E0E1E0D1E83
:101A80000C1E0B1E0A1E091E086C000E09220A22DB
:101A90000B220C220D220E220F2208C008F009C0D2
:101AA00009F00AC00AF00BC00BF00CC00CF00DC01E
:101AB0000DF00EC00EF00FC00FF012000D6E000101
:101AC00064B165EF0DF067EF0DF0ABEF0DF00AC0FC
:101AD000D9FF0BC0DAFF020EDF6E20EE01F060517D
:101AE000D9266151DA2208C0DEFF09C0DDFF60C0DF
:101AF000D9FF61C0DAFF0DC0DFFF20EE03F06051B7
:101B0000D9266151DA220AC0DEFF0BC0DDFF050EC7
:101B10006027000E6123A40E601907E1000E611911
:101B2000D8A495EF0DF097EF0DF09BEF0DF09F0E01
:101B3000606F000E616F64936051621907E161513B
:101B40006319D8A4A6EF0DF0A8EF0DF0B1EF0DF0DA
:101B50006481B1EF0DF00AC0D9FF0BC0DAFF010EAE
:101B6000DF6E0AC0D9FF0BC0DAFF020EDE18D8A460
:101B7000BCEF0DF0BEEF0DF0C1EF0DF0C2EC10F0B8
:101B80009E8612004FA0C7EF0DF0C9EF0DF0D3EF06
:101B90000DF01CC013F01DC014F01AC015F01BC0CE
:101BA00016F0A0EC0FF01FBED8EF0DF0DAEF0DF03D
:101BB000E0EF0DF01EC023F01FC024F0E4EF0DF0A5
:101BC000000E246E000E236E000E226E000E216E9B
:101BD000F6EF0DF0000E0B6E200E0A6E1AC00CF020
:101BE0001BC00DF023EC0EF0214A222A2350215C69
:101BF0002250800A206E2450800A2058D8A003EF7B
:101C00000EF005EF0EF0EAEF0DF04FB00AEF0EF018
:101C10000CEF0EF016EF0EF01CC013F01DC014F008
:101C20001AC015F01BC016F0A0EC0FF01CC008F095
:101C30001DC009F043EC10F0235008241A6E245004
:101C400009201B6E12000C500D10D8B42AEF0EF0B4
:101C50002CEF0EF035EF0EF00C500D10D8A433EF32
:101C60000EF035EF0EF03AEF0EF00A50D2EC10F015
:101C70006DEF0EF020EE04F00C50D9260D50DA2254
:101C8000DE50DE10D8B447EF0EF049EF0EF064EFEF
:101C90000EF020EE04F00C50D9260D50DA2210EE92
:101CA00002F00C50E1260D50E222DE50E65CE650D8
:101CB000800A126EDE50800A1258D8B062EF0EF021
:101CC00064EF0EF06DEF0EF020EE02F00C50D9260E
:101CD0000D50DA22DE2A000EDD221200000E186EF0
:101CE000180E116E000E126E010E136E000E156EA0
:101CF0004D0E146E1A0E166E000E176ED6EC0EF008
:101D0000020E1A18D8B487EF0EF089EF0EF080EFAC
:101D10000EF0190E116E000E126E010E136E000EF3
:101D2000156E4D0E146E1A0E166E000E176E02EC26
:101D30000FF0020E1A18D8B4A0EF0EF0A2EF0EF0BA
:101D400099EF0EF019501200B0C0B4F0B1C0B5F068
:101D5000000E0001686F000E676FC2EF0EF0AEC09C
:101D600049F0AFC04AF0B40E4B6E000E4C6EB2C0DC
:101D70004DF0B3C04EF009EC0BF04950000167275D
:101D80004A506823B4C0F6FFB5C0F7FFF86A0800F0
:101D9000F5500009D8A4CFEF0EF0D1EF0EF0AFEF61
:101DA0000EF067C0AEF068C0AFF01200000164B181
:101DB000DCEF0EF0DEEF0EF0FBEF0EF09A0E086E89
:101DC000000E096E11C00AF012C00BF013C00CF027
:101DD00014C00DF015C00EF0C2EC0FF09A0E086E94
:101DE000000E096E16C00AF017C00BF0010E5EEC73
:101DF0000DF001EF0FF016C0D9FF17C0DAFF010E8A
:101E0000DF6E1200000164B108EF0FF00AEF0FF06F
:101E100027EF0FF0950E086E000E096E11C00AF044
:101E200012C00BF013C00CF014C00DF015C00EF072
:101E30002EEC0FF0950E086E000E096E16C00AF01B
:101E400017C00BF0010E5EEC0DF02DEF0FF016C079
:101E5000D9FF17C0DAFF010EDF6E12000DC00FF0C0
:101E60000EC010F0D8900F36103608C0D9FF09C048
:101E7000DAFF0FC0DEFF10C0DDFF08C0D9FF09C0C8
:101E8000DAFF000EDB8020EE02F00850D926095060
:101E9000DA220CC0DFFF20EE03F00850D9260950EB
:101EA000DA220AC0DEFF0BC0DDFF1200B7EC10F033
:101EB000F28EF28C6EEC0EF0010E0001B66F100E79
:101EC000B76F6EEC0EF00001BE6FBE51B86FB96B0C
:101ED00078EC10F0060E0001BF6F130EBE6FAD0E52
:101EE000E82EFED7BE2FFCD7BF2FFAD700D05AEF6F
:101EF0000FF03AEF00F0036EC584000120EE03F00E
:101F00006F51D9267051DA22DE50DE10D8B48BEF33
:101F10000FF08DEF0FF09DEF0FF020EE03F06F51FB
:101F2000D9267051DA22DECF01F0DDCF02F001C0F8
:101F3000D9FF02C0DAFF03C0DFFF000E546E1200AB
:101F4000000E196E000E186EB1EF0FF017C00AF0F8
:101F50000B6A15C00CF016C00DF023EC0EF0184AF9
:101F6000192A18501324D96E19501420DA6EDF5034
:101F7000176E1750D8A4BFEF0FF0C1EF0FF0A6EF08
:101F80000FF012000DC00FF00EC010F0D8900F36F9
:101F9000103608C0D9FF09C0DAFF0FC0DEFF10C03D
:101FA000DDFF20EE02F00850D9260950DA220CC0DD
:101FB000DFFF20EE03F00850D9260950DA220AC0CC
:101FC000DEFF0BC0DDFF12001BBEF1EF0FF01B5058
:101FD00006E11A04D8B0EFEF0FF0F1EF0FF0FFEFCA
:101FE0000FF01AC01CF01BC01DF01C1E1D1E1C4A49
:101FF0001D2A1CC01AF01DC01BF003EF10F01AC000
:102000001AF01BC01BF01200080EB86E900EAB6EDB
:10201000240EAC6ECF0EAF6E000EB06E000E086ECA
:10202000000E096EDCEC10F0000E086E000E096E5A
:10203000D7EC10F0000E086E000E096EE1EC10F007
:10204000000E0001736F1200000E8D6E000E8C6E7C
:10205000000E896E000E8A6E000E8B6E070E966E55
:1020600092689368BF0E946E95680F013B69240EC9
:102070003A6F3F0E396F070E3C6F2F0E386F000E10
:10208000616EF18E120008C00AF009C00BF04BEF30
:1020900010F0084A092A08C0D9FF09C0DAFFDF504A
:1020A000D8A455EF10F057EF10F049EF10F00A5098
:1020B000085C086E0B500958096E12009F0E000153
:1020C000626F000E636F9F0E606F000E616F64831E
:1020D0006491000E666F800EC76E280EC66E000EED
:1020E000CB6E130EC86E9E96A1969D86A08612009A
:1020F000B80E0001BC6F000EBD6F000EAE6F000E7B
:10210000AF6FB6C0B0F0B7C0B1F0BC0EB26F000E8A
:10211000B36FA4EC0EF0120000EE60F0440EEE6A15
:10212000E806FDE100EE4FF0080EEE6AE806FDE17C
:1021300057905792000156EF0FF0050E00017127DE
:10214000000E7223532EA9EF10F0040E546EABEF65
:1021500010F0010E546E1200086E9EA8B2EF10F03F
:10216000B4EF10F0ADEF10F008C0ADFF1200E6ECD8
:1021700010F024EC10F0CBEC10F05EEC10F004EC5E
:1021800010F012005450D8A4C8EF10F0CAEF10F0AD
:10219000C2EF10F01200620ED36E040ED26E000E6B
:1021A0009B6E1200096E0950ACEC10F0120008C0D2
:1021B000C2F009C0C3F0120008C0C4F009C0C5F0E5
:1021C000120008C0C0F009C0C1F01200D09E120079
:0421D000A1961200C2
:020000040020DA
:08000000FFFFFFFFFFFFFFFF00
:020000040030CA
:0E000000FF281F3CFFBF81FF0FC00FE00F4025
:00000001FF
