:040000008A11FD2F35
:100F7800831603138601F001F10183120313861609
:100F88000130F0000030F1007108803AFF0097301E
:100F98007F02031DD12F703070020318E42F013037
:100FA800F0070318F10A0030F1077108803AFF00D2
:100FB80097307F02031DE22F70307002031CD32F7D
:100FC8008312031386120130F0000030F10071081B
:100FD800803AFF0097307F02031DF42F70307002B3
:100FE8000318C12F0130F0070318F10A0030F10788
:080FF800EB2F83018A11BC2FCD
:00000001FF
