:100000000428FF3FFF3FFF3F03138316860105309F
:10001000831286000330FC00FF30FB00FF30FA0043
:10002000FC0B13281A28FB0B16281928FA0B162884
:10003000132810280B30FB00FF30FA00FB0B21289F
:100040002428FA0B21281E281830FA00FA0B26283B
:100050000A3086000330FC00FF30FB00FF30FA005E
:10006000FC0B33283A28FB0B36283928FA0B3628A4
:10007000332830280B30FB00FF30FA00FB0B4128FF
:100080004428FA0B41283E281830FA00FA0B46287B
:1000900007284928FF3FFF3FFF3FFF3FFF3FFF3F4C
:02400E00FFFFB2
:00000001FF
