:100000000428FF3FFF3FFF3F031383168601CC30D8
:10001000831286000B30FC00FF30FB00FF30FA003B
:10002000FC0B13281A28FB0B16281928FA0B162884
:10003000132810283330FB00FF30FA00FB0B212877
:100040002428FA0B21281E288830FA00FA0B2628CB
:1000500086010B30FC00FF30FB00FF30FA00FC0B88
:1000600032283928FB0B35283828FA0B3528322856
:100070002F283330FB00FF30FA00FB0B40284328C9
:10008000FA0B40283D288830FA00FA0B452847280B
:02400E00FFFFB2
:00000001FF
