:020000040000FA
:04000000B2EF7FF0EC
:10FF64000001B5EF7FF0000E0F01396F000E936EA4
:10FF74008A908A928A948AB0C2EF7FF0C5EF7FF0AC
:10FF8400010EC6EF7FF0000EFF0A016E8A500118C1
:10FF9400FE0B01188A6E8AB2D2EF7FF0D5EF7FF0A4
:10FFA400010ED6EF7FF0000EFF0A016E01468A5063
:10FFB4000118FD0B01188A6E8AB4E3EF7FF0E6EFB7
:10FFC4007FF0010EE7EF7FF0000EFF0A016E01469D
:10FFD40001468A500118FB0B01188A6E150E026E39
:10FFE4004B0E016EBE0EE82EFED7012EFCD7022E5C
:0CFFF400FAD700D0BDEF7FF000EF00F066
:020000040020DA
:08000000FFFFFFFFFFFFFFFF00
:020000040030CA
:0E000000FF23193CFF3F85FF0FC00FE00F40AC
:00000001FF
