:100000000428FF3FFF3FFF3F03138316860183123F
:10001000061406160B30FC00FF30FB00FF30FA0020
:10002000FC0B13281A28FB0B16281928FA0B162884
:10003000132810283330FB00FF30FA00FB0B212877
:100040002428FA0B21281E288830FA00FA0B2628CB
:10005000061006120B30FC00FF30FB00FF30FA00E8
:10006000FC0B33283A28FB0B36283928FA0B3628A4
:10007000332830283330FB00FF30FA00FB0B4128D7
:100080004428FA0B41283E288830FA00FA0B46280B
:100090004828FF3FFF3FFF3FFF3FFF3FFF3FFF3F3E
:02400E00FFFFB2
:00000001FF
