:040000008A11FA2F38
:100F280008001C30831203179800B030831603178B
:100F38009E00FF3083160313850086011530831247
:100F48000317990025309A00831603130108F03916
:100F5800073881000800DC308316031385002F3022
:100F680086000A308700831203179E019F018316AB
:100F7800031395012030831203179500831603137A
:100F880081138312031385018601870183160313D6
:100F98000F1DCA2F8A1195278A1100308312031357
:100FA8008F0080308E000B118B168B17831203175E
:100FB800981799179A178312031381011014503048
:100FC8000F02031CE92F0616EA2F06120F088A11D2
:100FD80094278A11831203130E088A1194278A1101
:100FE8000B11831203138E018F01E22FF001F1011F
:080FF800F20183018A11AF2F01
:00000001FF
