:020000040000FA
:04000000A9EF08F06C
:101000000057656C636F6D650A0D00009BEC08F07E
:101010008980410E8DEC08F0010E086E100E096EED
:1010200070EC08F08A80150E0B6E4B0E0A6EBE0E29
:10103000E82EFED70A2EFCD70B2EFAD700D08A90C6
:10104000150E0B6E4B0E0A6EBE0EE82EFED70A2E44
:10105000FCD70B2EFAD700D008EF08F000EF00F015
:10106000000E8D6E000E8C6E000E896E000E8A6E64
:10107000000E8B6E070E966EFE0E926EF00E936E45
:10108000BF0E946E95680F013B693C0E3A6F300EAF
:10109000396F070E3C6F2E0E386F000E616EF18EA9
:1010A0001200080EB86E900EAB6E240EAC6E440E9D
:1010B000AF6E000EB06E000E076E000E086EB3EC41
:1010C00008F0000E076E000E086EAEEC08F0000E81
:1010D000076E000E086EB8EC08F0000E0D6E1200E0
:1010E0007DEF08F008C0F6FF09C0F7FFF86A0800B6
:1010F000F5508DEC08F0084A092A08C0F6FF09C02F
:10110000F7FFF86A0800F5500009D8A48AEF08F044
:101110008CEF08F072EF08F01200076E91EF08F004
:1011200004009EA896EF08F098EF08F090EF08F002
:1011300007C0ADFF120030EC08F0A2EC08F051EC53
:1011400008F01200600ED36E040ED26E000E9B6E7D
:1011500012000D6A0C6A000106EF08F007C003F0E8
:1011600008C004F0120007C005F008C006F0120025
:0A11700007C001F008C002F01200F1
:020000040020DA
:08000000FFFFFFFFFFFFFFFF00
:020000040030CA
:0E000000FF231E3FFFBD81FF0FC00FE00F402A
:00000001FF
