:040000008A11FD2F35
:100F5400FF30831603138500FF308600FF308700BF
:100F6400831203179E019F01831603130515831231
:100F740003171E15831603130612831203139F17F8
:100F84001F13831603131F088F3910389F00831211
:100F940003131F08C33908389F001F149F149F1898
:100FA400D12F1E08F300831603131E08F2007308E2
:100FB400803AFF0082307F02031DE22F013072026B
:100FC400031CED2F8230F100DD30F000F00BE82F30
:100FD400F10BE82FED2F8312031306168230F10074
:100FE400DD30F000F00BF42FF10BF42FF92F831206
:0C0FF40003130612D02F83018A11AA2FCC
:02400E00F4F0CC
:00000001FF
