:020000040000FA
:04000000EFEF09F025
:101000000057454C434F4D4520544F20494E4E45C7
:101010005849560A0D0057726F6E67206B6579202C
:10102000707265737365640A0D0050726573732086
:10103000312C32206F7220330A0D000038C0D9FFE6
:1010400039C0DAFFDECFF6FFDDCFF7FFF86A080020
:10105000F550250AD8A42FEF08F031EF08F079EF0A
:1010600008F038C0D9FF39C0DAFFDE2A000EDD22D1
:10107000000E246E000E236E23C027F024C028F03B
:101080002568266838C0D9FF39C0DAFFDECFF6FF01
:10109000DDCFF7FFF86A0800F550250AD8A453EF12
:1010A00008F055EF08F06CEF08F038C0D9FF39C0F0
:1010B000DAFFDE2A000EDD22000E2E6E250E2D6ECA
:1010C00036C02FF037C030F0F5EC08F0000E376E68
:1010D000010E366E95EF08F038C0D9FF39C0DAFF3F
:1010E000DE2A000EDD22000E376E000E366E95EF02
:1010F00008F038C0D9FF39C0DAFFDECFF6FFDDCF08
:10110000F7FFF86A0800F5502D6E2E6A36C02FF0F2
:1011100037C030F0F5EC08F038C0D9FF39C0DAFF3D
:10112000DE2A000EDD2266EF08F01200F8EC09F06E
:10113000010E446E100E456EC4EC09F0060E4B6EA7
:10114000130E4A6EAE0EE82EFED74A2EFCD74B2E5B
:10115000FAD72A0E446E100E456EC4EC09F0B0ECBE
:1011600009F02A6E2A50E4EC09F0380E446E100E95
:10117000456EC4EC09F0DAEF08F0899A310ED7EC2D
:1011800009F0898A98EF08F0899A320ED7EC09F0B5
:10119000898A98EF08F0899A330ED7EC09F0898A8A
:1011A00098EF08F0160E446E100E456EC4EC09F070
:1011B00098EF08F02A504A6E4B6A4B50000AD8B498
:1011C000E4EF08F0D2EF08F04A50310AD8B4BDEF8E
:1011D00008F0030AD8B4C4EF08F0010AD8B4CBEF82
:1011E00008F0D2EF08F000EF00F02F503010D8B424
:1011F000FCEF08F0FEEF08F007EF09F02F50301079
:10120000D8A405EF09F007EF09F00CEF09F02D5015
:101210000FEC0AF03FEF09F020EE04F02F50D92632
:101220003050DA22DE50DE10D8B419EF09F01BEF8F
:1012300009F036EF09F020EE04F02F50D926305097
:10124000DA2210EE02F02F50E1263050E222DE507A
:10125000E65CE650800A356EDE50800A3558D8B01C
:1012600034EF09F036EF09F03FEF09F020EE02F01D
:101270002F50D9263050DA22DE2A000EDD2212004D
:101280003EC042F03FC043F0000E226E000E216EC1
:101290005CEF09F03CC036F03DC037F0420E386ECE
:1012A000000E396E40C03AF041C03BF01EEC08F031
:1012B000365021263750222242C0F6FF43C0F7FFA6
:1012C000F86A0800F5500009D8A469EF09F06BEF3F
:1012D00009F04AEF09F021C03CF022C03DF01200B5
:1012E000000E8D6E000E8C6E200E896E000E8A6EC2
:1012F000000E8B6E070E966EDF0E926EE90E936EE9
:10130000970E946E95680F013B69040E3A6F200E9C
:10131000396F070E3C6F0F0E386F000E616EF18E45
:101320001200080EB86E900EAB6E240EAC6ECF0E8F
:10133000AF6E000EB06E000E2B6E000E2C6E19EC10
:101340000AF0000E2B6E000E2C6E14EC0AF0000E4C
:101350002B6E000E2C6E1EEC0AF0000E296E120091
:101360009EAAB5EF09F0B7EF09F0B0EF09F0000E53
:10137000296EABA2BEEF09F0C0EF09F0C2EF09F091
:10138000AB98AB88AE501200460E486E000E496E08
:10139000000E3C6E000E3D6E44C03EF045C03FF076
:1013A000480E406E000E416E40EC09F012002B6EAC
:1013B000C69E2BC0C9FFC7A0E0EF09F0E2EF09F01D
:1013C000DBEF09F0C95012002B6E9EA8EAEF09F07E
:1013D000ECEF09F0E5EF09F02BC0ADFF120000EED5
:1013E00001F02A0EEE6AE806FDE1000196EF08F032
:1013F00070EC09F008EC0AF001EC0AF091EC09F04D
:101400001200C00EC76E220EC66E000EC86E12000D
:10141000620ED36E040ED26E000E9B6E12002C6E06
:101420002C50E4EC09F012002BC04EF02CC04FF011
:1014300012002BC050F02CC051F012002BC04CF009
:061440002CC04DF012006B
:020000040020DA
:08000000FFFFFFFFFFFFFFFF00
:020000040030CA
:0E000000FF281F3CFFBD85FF0FC00FE00F4023
:00000001FF
