:1000000017EF00F0EA6A060EE96EEF500EE0050EFB
:10001000016E006A002EFED7012EFBD72E0E006E59
:10002000002EFED700D0EF2EF2D736EF00F0F86AA0
:10003000D09EEA6AE96A0101886BC150F00BC16E7B
:10004000000E0F01386F3C6F396F3A6F3B6F776A64
:10005000786A796A000E926E926A896A929A897AAF
:10006000020E056EFA0E066E0001CCD7052E01D0E9
:1000700002D00F01F7D7929A897A0F01EFD70300C8
:020000040030CA
:0E00000000E2183C00BF81000FC00FE00F406F
:00000001FF
;PIC18F46K22
;CRC=8A15  CREATED="01-Nov-19 16:16"
