:020000040000FA
:040000002FEF20F0CE
:10100000005475726E20504F54206F6E20414E3048
:101010000041444320436F6E76657273696F6E00C2
:10102000566F6C746167653D200020252E33670084
:10103000494E46004E414E00696E66006E616E007C
:071040006C67002020000096
:10104800000E0001806F000E7F6F57C091F058C0EE
:1010580092F059C093F05AC094F094BF38EF08F05A
:1010680036EF08F04EEF08F0000E806F010E7F6F2C
:1010780091C001F092C002F093C003F094C004F054
:101088009DEC1FF001C091F002C092F003C093F0F4
:1010980004C094F0000E0001986F000E976FD9C03D
:1010A80084F0DAC085F07F518011D8A45EEF08F093
:1010B80060EF08F067EF08F0DDA565EF08F067EF6F
:1010C80008F081EF08F07F518011D8A46EEF08F086
:1010D80070EF08F076EF08F0000E6A6F2B0E696F5C
:1010E8007AEF08F0000E6A6F2D0E696F69C000F183
:1010F800974B982B8407D8A0850791C001F092C020
:1011080002F093C003F094C004F0CAEC1AF0010492
:101118000210D8A492EF08F094EF08F0EBEF08F073
:10112800BF0E0001606FFF0E616F5B50626F636BF3
:10113800605162276151632363510AE11A0E625DAF
:10114800D8A0A9EF08F0ACEF08F0010EADEF08F059
:10115800000E6B6F6C6B6B516C11D8B4B6EF08F066
:10116800B8EF08F0C6EF08F0000E9725016E010EE3
:101178009821026E300E036E100E046E62EC1EF0A3
:10118800D2EF08F0000E9725016E010E9821026E2D
:10119800380E036E100E046E62EC1EF00001FD0E98
:1011A8008427FF0E852355C011F056C012F0000E9B
:1011B800136E010E146E84C015F085C016F019EC7C
:1011C8001CF011C055F012C056F0FBEF0DF091C0A5
:1011D80001F092C002F093C003F094C004F0CAEC8E
:1011E8001AF001500210D8A4FCEF08F0FEEF08F046
:1011F8003EEF09F0BF0E0001606FFF0E616F5B509C
:10120800626F636B605162276151632363510AE126
:101218001A0E625DD8A013EF09F016EF09F0010E5F
:1012280017EF09F0000E6D6F6E6B6D516E11D8B42B
:1012380020EF09F022EF09F030EF09F0000E9725B2
:10124800016E010E9821026E340E036E100E046EAC
:1012580062EC1EF0D2EF08F0000E9725016E010E29
:101268009821026E3C0E036E100E046E62EC1EF0A6
:10127800D2EF08F0000E0001996F000E9A6F800EF1
:101288009B6F3F0E9C6F000E966F000E956F91C07E
:1012980001F092C002F093C003F094C004F0000E75
:1012A800056E000E066E000E076E000E086E36EC18
:1012B8001DF0D8B062EF09F064EF09F0E7EF09F02C
:1012C80083EF09F099C00FF09AC010F09BC011F09D
:1012D8009CC012F0000E136E000E146E200E156ED8
:1012E800410E166E93EC12F00FC099F010C09AF0F0
:1012F80011C09BF012C09CF00001954B962B91C039
:1013080028F092C029F093C02AF094C02BF0000E68
:10131800136E000E146E200E156E410E166E99C0D7
:101328000FF09AC010F09BC011F09CC012F093EC23
:1013380012F00FC02CF010C02DF011C02EF012C00A
:101348002FF048EC1AF0D8B0ACEF09F0AEEF09F086
:1013580066EF09F0CEEF09F099C028F09AC029F09D
:101368009BC02AF09CC02BF0000E2C6E000E2D6E38
:10137800200E2E6E410E2F6EA8EC14F028C099F0A6
:1013880029C09AF02AC09BF02BC09CF00001950759
:10139800D8A0960791C028F092C029F093C02AF0EF
:1013A80094C02BF099C02CF09AC02DF09BC02EF061
:1013B8009CC02FF048EC1AF0D8A0E5EF09F0E7EF51
:1013C80009F0B0EF09F05BC007F0086A32EC1EF0D4
:1013D80007500001866F86C083F0670E8619D8A46F
:1013E800F8EF09F0FAEF09F020EF0AF0DB51DC1111
:1013F800D8A401EF0AF003EF0AF007EF0AF0000E95
:10140800DC6F010EDB6FDCBF14EF0AF0DC5106E184
:10141800DB05D8B012EF0AF014EF0AF01AEF0AF061
:10142800000E826F060E816F29EF0AF0DBC081F093
:10143800DCC082F029EF0AF0DCBF25EF0AF027EFC5
:101448000AF014EF0AF01AEF0AF0670E8619D8A40A
:1014580030EF0AF032EF0AF061EF0AF096AF40EF92
:101468000AF0FC0E955DFF0E9659D8A03EEF0AF0E3
:1014780040EF0AF05FEF0AF0FF0E606FFF0E616F3A
:1014880081C062F082C063F06051622761516323BA
:101498009551625D6351800A646F9651800A645960
:1014A800D8A059EF0AF05BEF0AF05FEF0AF0660E7A
:1014B800836F61EF0AF0650E836F81C079F082C097
:1014C8007AF0670E8619D8A46CEF0AF06EEF0AF06E
:1014D8007EEF0AF0660E8319D8A475EF0AF077EF4D
:1014E8000AF080EF0AF096BF7EEF0AF07CEF0AF070
:1014F80080EF0AF0794B7A2B660E8319D8A487EF10
:101508000AF089EF0AF0A9EF0AF096BF90EF0AF007
:101518008EEF0AF09CEF0AF0000E996F000E9A6F9A
:10152800800E9B6F3F0E9C6F000E966F000E956F9E
:10153800670E8619D8B4A3EF0AF0A5EF0AF0A9EF51
:101548000AF09551792796517A23000E906F000E74
:101558008F6F91C087F092C088F093C089F094C0D3
:101568008AF099C065F09AC066F09BC067F09CC08D
:1015780068F03AEF0BF087C028F088C029F089C0DE
:101588002AF08AC02BF099C02CF09AC02DF09BC08D
:101598002EF09CC02FF0A8EC14F028C041F029C010
:1015A80042F02AC043F02BC044F075EC16F041C05D
:1015B8008BF042C08CF043C08DF044C08EF08BC0DD
:1015C80001F08CC002F08DC003F08EC004F0C5ECB1
:1015D80019F001C07DF002C07EF087C028F088C0F5
:1015E80029F089C02AF08AC02BF099C013F09AC05C
:1015F80014F09BC015F09CC016F08BC00FF08CC087
:1016080010F08DC011F08EC012F093EC12F00FC0E4
:101618002CF010C02DF011C02EF012C02FF0E3EC0A
:101628001EF028C087F029C088F02AC089F02BC096
:101638008AF099C028F09AC029F09BC02AF09CC073
:101648002BF0000E2C6E000E2D6E200E2E6E410E0D
:101658002F6EA8EC14F028C099F029C09AF02AC07F
:101668009BF02BC09CF000018F4B902B79518F5D24
:101678009051800A606F7A51800A6059D8A047EF6C
:101688000BF049EF0BF0BFEF0AF099C00FF09AC0CA
:1016980010F09BC011F09CC012F0000E136E000EEB
:1016A800146EA00E156E400E166E93EC12F00FC05D
:1016B8008BF010C08CF011C08DF012C08EF087C076
:1016C80028F088C029F089C02AF08AC02BF08BC086
:1016D8002CF08CC02DF08DC02EF08EC02FF048EC71
:1016E8001AF0D8B07AEF0BF07CEF0BF087EF0BF025
:1016F800000E00018B6F000E8C6F000E8D6F000EB8
:101708008E6FB0EF0BF087C001F088C002F089C07F
:1017180003F08AC004F08BC005F08CC006F08DC0C1
:1017280007F08EC008F036EC1DF0D8A09EEF0BF045
:10173800A0EF0BF0B0EF0BF000017DB1A6EF0BF0BE
:10174800A8EF0BF0B0EF0BF0000E8B6F000E8C6F54
:10175800000E8D6F000E8E6F91C001F092C002F0E6
:1017680093C003F094C004F08BC005F08CC006F061
:101778008DC007F08EC008F0FCEC0DF001C087F0BA
:1017880002C088F003C089F004C08AF065C099F0EF
:1017980066C09AF067C09BF068C09CF0650E0001B7
:1017A8008319D8B4DAEF0BF0DCEF0BF0E2EF0BF0B3
:1017B80095C07BF096C07CF0E6EF0BF0000E7C6FD6
:1017C800000E7B6F000E786F000E776F000E766F3D
:1017D800000E756F000E906F000E8F6FE1EF0CF02A
:1017E80087C028F088C029F089C02AF08AC02BF069
:1017F80099C02CF09AC02DF09BC02EF09CC02FF001
:10180800A8EC14F028C041F029C042F02AC043F0E7
:101818002BC044F075EC16F041C08BF042C08CF040
:1018280043C08DF044C08EF08BC001F08CC002F034
:101838008DC003F08EC004F0C5EC19F001C07DF036
:1018480002C07EF00001DDB92CEF0CF02EEF0CF099
:101858004BEF0CF07D517E11D8A435EF0CF037EF2B
:101868000CF04BEF0CF0670E8619D8A43EEF0CF085
:1018780040EF0CF04BEF0CF07CBF47EF0CF045EF5E
:101888000CF04BEF0CF0754B762B95EF0CF0775175
:101898007811D8A452EF0CF054EF0CF07EEF0CF056
:1018A8007CBF5BEF0CF059EF0CF07EEF0CF0000EF4
:1018B8009725D96E010E9821DA6E2E0EDF6E974BA2
:1018C800982B8407D8A08507000E786F010E776FD4
:1018D8007EEF0CF0000E9725D96E010E9821DA6E76
:1018E800300EDF6E974B982B8407D8A085077507B5
:1018F800D8A0760775517611D8A485EF0CF087EF3C
:101908000CF06EEF0CF0000E9725D96E010E9821A1
:10191800DA6E7D51300FDF6E974B982B8407D8A075
:10192800850787C028F088C029F089C02AF08AC0B6
:101938002BF099C013F09AC014F09BC015F09CC00E
:1019480016F08BC00FF08CC010F08DC011F08EC057
:1019580012F093EC12F00FC02CF010C02DF011C053
:101968002EF012C02FF0E3EC1EF028C087F029C03B
:1019780088F02AC089F02BC08AF099C028F09AC054
:1019880029F09BC02AF09CC02BF0000E2C6E000E94
:101998002D6E200E2E6E410E2F6EA8EC14F028C06E
:1019A80099F029C09AF02AC09BF02BC09CF0000146
:1019B8007B07D8A07C078F4B902B79518F5D905176
:1019C800800A606F7A51800A6059D8B0EEEF0CF047
:1019D800F0EF0CF0FEEF0CF098BFFCEF0CF0985114
:1019E80009E14B0E975DD8A0FCEF0CF0FEEF0CF070
:1019F800F4EF0BF077517811D8A405EF0DF007EF4D
:101A08000DF018EF0DF0DDA90CEF0DF00EEF0DF055
:101A180018EF0DF0000E9725D96E010E9821DA6E99
:101A28002E0EDF6E974B982B000E9725D96E010E60
:101A38009821DA6E000EDF6E650E8319D8A427EFA1
:101A48000DF029EF0DF0D7EF08F0000E906F4F0E54
:101A58008F6F000E8F25D96E010E9021DA6E000E61
:101A6800DF6E000E806F000E7F6F96BF40EF0DF0A7
:101A78003EEF0DF048EF0DF0000E806F010E7F6F06
:101A8800956D961FD8B0962B000E826F020E816F4F
:101A980079EF0DF08F07D8A09007000E8F25D96E2B
:101AA800010E9021DA6E95C001F096C002F0000E8A
:101AB800046E0A0E036EDEEC1CF00150300FDF6E70
:101AC80095C001F096C002F0000E046E0A0E036E77
:101AD8007CEC1CF001C095F002C096F00001810773
:101AE800D8A082078407D8A0850795519611D8A455
:101AF80080EF0DF082EF0DF04EEF0DF082BF8FEF0B
:101B08000DF0825106E18105D8B08DEF0DF08FEF11
:101B18000DF04EEF0DF08F07D8A090077F51801180
:101B2800D8A499EF0DF09BEF0DF0A1EF0DF0000E8A
:101B3800706F2B0E6F6FA5EF0DF0000E706F2D0EEE
:101B48006F6F000E8F25D96E010E9021DA6E6FC06F
:101B5800DFFF8407D8A085078F07D8A09007BF0E9E
:101B6800606FFF0E616F5B50626F636B605162273D
:101B78006151632363510AE11A0E625DD8A0C7EF71
:101B88000DF0CAEF0DF0010ECBEF0DF0000E736FE4
:101B9800746B73517411D8A4D4EF0DF0D6EF0DF017
:101BA800DCEF0DF0000E726F650E716FE0EF0DF057
:101BB800000E726F450E716F000E8F25D96E010EE3
:101BC8009021DA6E71C0DFFF8407D8A08507000E68
:101BD8009725016E010E9821026E000E8F25036E67
:101BE800010E9021046E62EC1EF0D7EF08F012008F
:101BF8000450800B0D6E045004240F6E03AE07EFE3
:101C08000EF009EF0EF00AEF0EF00F800F50D8B467
:101C180010EF0EF012EF0EF027EF0EF00F28D8A4F9
:101C280018EF0EF01AEF0EF022EF0EF0000E016E14
:101C3800000E026E000E036E000E046E038E000E80
:101C4800046E2FEF0EF0000E016E000E026E000EF5
:101C5800036E000E046E0850800B0E6E0D500E18A9
:101C6800D8B439EF0EF03BEF0EF03CEF0EF00D8CD0
:101C7800085008240E6E07AE44EF0EF046EF0EF043
:101C880047EF0EF00E800E50D8B44DEF0EF04FEF28
:101C98000EF064EF0EF00E28D8A455EF0EF057EFB3
:101CA8000EF05FEF0EF0000E056E000E066E000ED1
:101CB800076E000E086E078E000E086E6CEF0EF0B1
:101CC800000E056E000E066E000E076E000E086E02
:101CD8000F500E5CD8B073EF0EF075EF0EF09CEF5E
:101CE8000EF00DAC7AEF0EF07CEF0EF07EEF0EF0FA
:101CF800800E0D1A0FC010F00EC00FF010C00EF0BD
:101D080001C010F005C001F010C005F002C010F0CD
:101D180006C002F010C006F003C010F007C003F0C0
:101D280010C007F004C010F008C004F010C008F09C
:101D3800000E106E0F500EC009F00A6A095E000E00
:101D48000A5A0ABEB1EF0EF00A5009E11A0E095CF0
:101D5800D8A0B1EF0EF0B3EF0EF0EAEF0EF001509D
:101D6800021003100410D8A4BCEF0EF0BFEF0EF061
:101D7800010EC0EF0EF0000E106E000E016E000E88
:101D8800026E000E036E000E046E0EC00FF0F3EF2D
:101D98000EF010A0D2EF0EF0D4EF0EF0DAEF0EF046
:101DA800D89010300109106EDCEF0EF0D890103288
:101DB80001A0E1EF0EF0E3EF0EF0E4EF0EF0108E6D
:101DC800043404320332023201320F2A0E500F5CFF
:101DD800D8A0F1EF0EF0F3EF0EF0CDEF0EF00DBC42
:101DE800F8EF0EF0FAEF0EF03AEF0FF00F50D8A41C
:101DF80000EF0FF002EF0FF00CEF0FF0000E016E86
:101E0800000E026E000E036E000E046E5BEF10F003
:101E180005500126065002220750032208500422CA
:101E280004A019EF0FF01BEF0FF0C7EF0FF010A091
:101E380020EF0FF022EF0FF028EF0FF0D8901030BE
:101E48000109106E2AEF0FF0D890103201A02FEF81
:101E58000FF031EF0FF032EF0FF0108E0434043230
:101E68000332023201320F2AC7EF0FF00550015C2E
:101E780006500258075003580450800A096E08504B
:101E8800800A0958D8B04BEF0FF04DEF0FF078EFFC
:101E98000FF00150055C096E025006580A6E035097
:101EA80007580B6E045008580C6EFF0E0924016E7B
:101EB800FF0E0A20026EFF0E0B20036EFF0E0C2091
:101EC800046E800E0D1A106C1050D8A46EEF0FF02F
:101ED80070EF0FF080EF0FF0010E0126000E0222C6
:101EE8000322042280EF0FF00550015E0650025ACB
:101EF8000750035A0850045A0150021003100410E6
:101F0800D8A489EF0FF08BEF0FF0C0EF0FF010504F
:101F1800D8A491EF0FF093EF0FF0C0EF0FF0000E81
:101F2800016E000E026E000E036E000E046E5BEF73
:101F380010F0D890013602360336043610AEA7EFFB
:101F48000FF0A9EF0FF0AAEF0FF0018010A0AFEF8C
:101F58000FF0B1EF0FF0B5EF0FF0D8801036B7EFF4
:101F68000FF0D89010360F50D8B4BDEF0FF0BFEF78
:101F78000FF0C0EF0FF00F0603AEC5EF0FF0C7EF7D
:101F88000FF09DEF0FF0000E0E6E10AECEEF0FF0BB
:101F9800D0EF0FF0E8EF0FF010C009F07F0E091630
:101FA800D8B4D9EF0FF0DBEF0FF0DFEF0FF0010E31
:101FB8000E6EE8EF0FF001A0E4EF0FF0E6EF0FF080
:101FC800E8EF0FF0DBEF0FF00E50D8B4EEEF0FF0A4
:101FD800F0EF0FF01BEF10F0010E0126000E0222A9
:101FE8000322042204A0FBEF0FF0FDEF0FF01BEF1C
:101FF80010F001C009F002C00AF003C00BF004C0E1
:102008000CF00C340C320B320A32093209C001F0E0
:102018000AC002F00BC003F00CC004F00F28D8B4BB
:1020280018EF10F01AEF10F01BEF10F00F2A0F281E
:10203800D8B421EF10F023EF10F02BEF10F00F5071
:10204800D8A429EF10F02BEF10F03DEF10F0000EA0
:10205800016E000E026E000E036E000E046E0F502D
:10206800D8A439EF10F03BEF10F03DEF10F0000E60
:102078000D6E0FA042EF10F044EF10F047EF10F094
:10208800038E48EF10F0039ED8900F30046E0DAE0B
:1020980050EF10F052EF10F053EF10F0048E01C023
:1020A80001F002C002F003C003F004C004F0120003
:1020B8009FC0D9FFA0C0DAFFDECFF6FFDDCFF7FF64
:1020C8000800F550250AD8A46CEF10F06EEF10F058
:1020D80077EF12F09FC0D9FFA0C0DAFFDE2A000E0A
:1020E800DD22000E0001DA6F000ED96FD9C0DDF0D5
:1020F800DAC0DEF0DB69DC699FC0D9FFA0C0DAFF77
:10210800DECFF6FFDDCFF7FF0800F5502E0AD8A482
:1021180090EF10F092EF10F010EF11F0000EDC6F5E
:10212800000EDB6F9FC0D9FFA0C0DAFFDE2A000EC9
:10213800DD229FC0D9FFA0C0DAFFDECFF6FFDDCFDA
:10214800F7FF0800F5502A0AD8A4ADEF10F0AFEF5A
:1021580010F0CCEF10F09FC0D9FFA0C0DAFFDE2A44
:10216800000EDD22A1C0D9FFA2C0DAFFDFCF5CF0EC
:10217800020EDE26DFCF5DF0000EDD225CC0D9FF47
:102188005DC0DAFFDECFDBF0DDCFDCF010EF11F061
:102198009FC0D9FFA0C0DAFFDECF08F0DDCF09F07D
:1021A80058EC18F008C0DBF009C0DCF0E3EF10F0E1
:1021B8009FC0D9FFA0C0DAFFDE2A000EDD22D00EB4
:1021C8005C6EFF0E5D6E9FC0D9FFA0C0DAFFDECF48
:1021D800F6FFDDCFF7FF0800F5505E6E5F6A5C50D2
:1021E8005E265D505F225F500AE10A0E5E5CD8A051
:1021F80000EF11F003EF11F0010E04EF11F0000EE3
:102208000001A36FA46BA351A411D8A40EEF11F081
:1022180010EF11F0DCEF10F09FC0D9FFA0C0DAFF7B
:10222800DECFF6FFDDCFF7FF0800F550076E086A2E
:1022380032EC1EF007500001AB6FAB51D8B427EF5A
:1022480011F029EF11F063EF11F09FC0D9FFA0C082
:10225800DAFFDECF5CF0DDCF5DF0010E5C26000E0C
:102268005D225CC0F6FF5DC0F7FF0800F550076E01
:10227800086A32EC1EF007500001AC6FAC51D8B4BC
:1022880048EF11F04AEF11F063EF11F09FC0D9FF4A
:10229800A0C0DAFFDECF5CF0DDCF5DF0020E5C2679
:1022A800000E5D225CC0F6FF5DC0F7FF0800F55028
:1022B800076E086A32EC1EF007500001AD6F670E1A
:1022C800AB19D8A46AEF11F06CEF11F0ACEF11F074
:1022D8009FC0D9FFA0C0DAFFDECFF6FFDDCFF7FF42
:1022E8000800F5CFAEF09FC0D9FFA0C0DAFFDE2A04
:1022F800000EDD22A1C0D9FFA2C0DAFFDFCF5CF05B
:10230800040EDE26DFCF5DF0000EDD225CC0D9FFB3
:102318005DC0DAFFDECFA7F0DECFA8F0DECFA9F0F0
:10232800DECFAAF09DC055F09EC056F0A7C057F06A
:10233800A8C058F0A9C059F0AAC05AF0AEC05BF0C6
:1023480024EC08F055C09DF056C09EF092EF12F0B4
:10235800AB0E016E000E026E400E036E100E046E80
:10236800000E066E020E056E49EC1BF001500210BD
:10237800D8A4C1EF11F0C3EF11F03FEF12F09FC0E6
:10238800D9FFA0C0DAFFDECF5CF0DDCF5DF0010E33
:102398005C26000E5D225CC0F6FF5DC0F7FF0800FA
:1023A800F5CFAEF0BF0E5C6EFF0E5D6E9FC0D9FF1D
:1023B800A0C0DAFFDECFF6FFDDCFF7FF0800F5504B
:1023C8005E6E5F6A5C505E265D505F225F500AE178
:1023D8001A0E5E5CD8A0F3EF11F0F6EF11F0010EC3
:1023E800F7EF11F0000E0001A56FA66BA551A6111D
:1023F800D8B401EF12F003EF12F01DEF12F0A1C0F4
:10240800D9FFA2C0DAFFDFCF5CF0040EDE26DFCFF3
:102418005DF0000EDD225CC0D9FF5DC0DAFFDECFC3
:10242800A7F0DECFA8F0DECFA9F0DECFAAF035EF17
:1024380012F0A1C0D9FFA2C0DAFFDFCF5CF0040E12
:10244800DE26DFCF5DF0000EDD225CC0D9FF5DC067
:10245800DAFFDECFA7F0DECFA8F0DECFA9F0DECF1F
:10246800AAF0020E9FC0D9FFA0C0DAFFDE26000E38
:10247800DD2296EF11F09FC0D9FFA0C0DAFFDECFB2
:10248800F6FFDDCFF7FF0800F550250AD8A44FEF77
:1024980012F051EF12F069EF12F09FC0D9FFA0C0FF
:1024A800DAFFDE2A000EDD22000E026E250E016E16
:1024B8009DC003F09EC004F0B4EC1BF0000E0001B8
:1024C8009E6F010E9D6F92EF12F09FC0D9FFA0C0C2
:1024D800DAFFDE2A000EDD22000E00019E6F000EDC
:1024E8009D6F92EF12F09FC0D9FFA0C0DAFFDECF38
:1024F800F6FFDDCFF7FF0800F550016E026A9DC0B8
:1025080003F09EC004F0B4EC1BF09FC0D9FFA0C03C
:10251800DAFFDE2A000EDD2262EF12F012001250FE
:10252800800B1B6E12501224216E11AE9EEF12F01A
:10253800A0EF12F0A1EF12F021802150D8B4A7EF3C
:1025480012F0A9EF12F0BCEF12F02128D8A4AFEFD7
:1025580012F0B1EF12F0B9EF12F0000E0F6E000E8C
:10256800106E000E116E000E126E118EC4EF12F076
:10257800000E0F6E000E106E000E116E000E126E21
:102588001650800B1B1A16501624206E15AECFEF6E
:1025980012F0D1EF12F0D2EF12F020802050D8B410
:1025A800D8EF12F0DAEF12F0EDEF12F02028D8A4ED
:1025B800E0EF12F0E2EF12F0EAEF12F0000E136E05
:1025C800000E146E000E156E000E166E158EF5EFC9
:1025D80012F0000E136E000E146E000E156E000E33
:1025E800166E2050D8B4FBEF12F0FDEF12F005EF95
:1025F80013F02150D8A403EF13F005EF13F00FEFF9
:1026080013F0000E0F6E000E106E000E116E000E0D
:10261800126EA7EF14F015500F02F3CF26F0F4CF87
:1026280027F026501C6E1D6A1E6A1F6A2750226EEC
:10263800236A246A256A14501002F3CF26F0F4CFD7
:1026480027F026501C26000E1D221E221F2227506E
:102658002226000E23222422252213501102F3CF12
:1026680026F0F4CF27F026501C26000E1D221E222D
:102678001F2227502226000E2322242225221EC094
:102688001FF01DC01EF01CC01DF01C6A1350100264
:10269800F3CF26F0F4CF27F026501C2627501D2212
:1026A800000E1E22000E1F2214500F02F3CF26F038
:1026B800F4CF27F026501C2627501D22000E1E227C
:1026C800000E1F221EC01FF01DC01EF01CC01DF0F2
:1026D8001C6A13500F02F3CF26F0F4CF27F02650D0
:1026E8001C2627501D22000E1E22000E1F221550E8
:1026F8001002F3CF26F0F4CF27F0265022262750D9
:102708002322000E2422000E252214501102F3CF9A
:1027180026F0F4CF27F02650222627502322000E39
:102728002422000E252215501102F3CF26F0F4CFF3
:1027380027F02650176E2750186E196A1A6A19C0A2
:102748001AF018C019F017C018F0176A1750222687
:1027580018502322195024221A5025221CC017F081
:102768001DC018F01EC019F01FC01AF0190EC2EFD4
:1027780013F0D8901A32193218321732E82EBDEFFA
:1027880013F01750222618502322195024221A50C9
:1027980025221EC01FF01DC01EF01CC01DF01C6AA3
:1027A800205021C017F0186A1726000E1822820E32
:1027B8001724266EFF0E1820276EF8EF13F0D89016
:1027C80022362336243625361FAEEDEF13F0EFEF11
:1027D80013F0F0EF13F02280D8901C361D361E3609
:1027E8001F362606D8A0270624AEFDEF13F0FFEF0C
:1027F80013F0E3EF13F0000E206E1FAE06EF14F097
:1028080008EF14F02CEF14F0FF0E1C14176EFF0ED7
:102818001D14186EFF0E1E14196E7F0E1F141A6EEB
:102828001750181019101A10D8B41DEF14F01FEF14
:1028380014F023EF14F0010E206E2CEF14F022A0F8
:1028480028EF14F02AEF14F02CEF14F01FEF14F017
:102858002050D8B432EF14F034EF14F058EF14F0DD
:10286800010E2226000E23222422252225A03FEF36
:1028780014F041EF14F058EF14F022C017F023C001
:1028880018F024C019F025C01AF01A341A32193277
:102898001832173217C022F018C023F019C024F0DC
:1028A8001AC025F0264A272A27BE63EF14F02750BE
:1028B80008E12628D8A063EF14F065EF14F06FEF55
:1028C80014F0000E226E000E236E800E246E7F0E12
:1028D800256E9DEF14F027BE7CEF14F0275006E11B
:1028E8002604D8B07AEF14F07CEF14F088EF14F0D7
:1028F800000E226E000E236E000E246E000E256E52
:10290800000E1B6E9DEF14F026C021F0FF0E22165C
:10291800FF0E23167F0E2416000E251621A097EF12
:1029280014F099EF14F09AEF14F0248ED890213017
:10293800256E1B50251222C00FF023C010F024C0B2
:1029480011F025C012F012002B50800B386E2B505E
:102958002B243F6E2AAEB3EF14F0B5EF14F0B6EFA8
:1029680014F03F803F50D8B4BCEF14F0BEEF14F021
:10297800D3EF14F03F28D8A4C4EF14F0C6EF14F036
:10298800CEEF14F0000E286E000E296E000E2A6E8F
:10299800000E2B6E2A8E000E2B6EDBEF14F0000E4D
:1029A800286E000E296E000E2A6E000E2B6E2F5018
:1029B800800B381A2F502F24406E2EAEE6EF14F0FD
:1029C800E8EF14F0E9EF14F040804050D8B4EFEF8E
:1029D80014F0F1EF14F006EF15F04028D8A4F7EF43
:1029E80014F0F9EF14F001EF15F0000E2C6E000E44
:1029F8002D6E000E2E6E000E2F6E2E8E000E2F6E78
:102A08000EEF15F0000E2C6E000E2D6E000E2E6EC1
:102A1800000E2F6E2C502D102E102F10D8A417EF4B
:102A280015F019EF15F031EF15F0000E286E000EB5
:102A3800296E000E2A6E000E2B6E800E2A127F0E53
:102A48002B1238502B1228C028F029C029F02AC090
:102A58002AF02BC02BF074EF16F03F50D8A437EFB4
:102A680015F039EF15F043EF15F0000E286E000E43
:102A7800296E000E2A6E000E2B6E74EF16F0405071
:102A88003FC030F0316A305E000E315A7F0E30247C
:102A9800396E000E31203A6E28C034F029C035F066
:102AA8002AC036F02BC037F0000E286E000E296EB3
:102AB800000E2A6E000E2B6E000E3B6E000E3C6E52
:102AC800000E3D6E000E3E6E000E406EA4EF15F037
:102AD8004050D8B472EF15F074EF15F08BEF15F085
:102AE800D8903436353636363736D89028362936A3
:102AF8002A362B363EAE83EF15F085EF15F086EFBC
:102B080015F02880D8903B363C363D363E362C5062
:102B1800345C2D5035582E5036582F503758D8A081
:102B280098EF15F09AEF15F0A3EF15F03E8C2C50A6
:102B3800345E2D50355A2E50365A2F50375A402A67
:102B4800190E4064AAEF15F0ACEF15F06CEF15F014
:102B58003450351036103710D8B4B5EF15F0B7EF3C
:102B680015F0CFEF15F03B80CFEF15F0D890283651
:102B780029362A362B363EAEC4EF15F0C6EF15F0CF
:102B8800C7EF15F02880D8903B363C363D363E36A8
:102B98003906D8A03A062AAED4EF15F0D6EF15F0CC
:102BA800BAEF15F0000E406E3EAEDDEF15F0DFEF28
:102BB80015F003EF16F0FF0E3B14306EFF0E3C14B9
:102BC800316EFF0E3D14326E7F0E3E14336E305060
:102BD800311032103310D8B4F4EF15F0F6EF15F0C9
:102BE800FAEF15F0010E406E03EF16F028A0FFEF84
:102BF80015F001EF16F003EF16F0F6EF15F0405060
:102C0800D8B409EF16F00BEF16F02FEF16F0010EFF
:102C18002826000E29222A222B222BA016EF16F096
:102C280018EF16F02FEF16F028C030F029C031F059
:102C38002AC032F02BC033F03334333232323132DF
:102C4800303230C028F031C029F032C02AF033C009
:102C58002BF0394A3A2A3ABE3AEF16F03A5008E1D0
:102C68003928D8A03AEF16F03CEF16F047EF16F0E7
:102C7800000E3A6E3968000E286E000E296E000E9E
:102C88002A6E000E2B6E3ABE54EF16F03A5006E14B
:102C98003904D8B052EF16F054EF16F062EF16F080
:102CA800000E3A6E000E396E000E286E000E296E68
:102CB800000E2A6E000E2B6E000E386E39C03FF0E3
:102CC8003FA069EF16F06BEF16F06EEF16F02A8E44
:102CD8006FEF16F02A9ED8903F302B6E25EF15F037
:102CE8001200CBC051F0CCC052F0CDC053F0CEC0D2
:102CF80054F041C051F042C052F043C053F044C0B8
:102D080054F0810E456EFF0E466E51C047F052C01A
:102D180048F053C049F054C04AF0180E99EF16F025
:102D2800D8904A32493248324732E82E94EF16F0AA
:102D3800475045244F6E000E4620506E50BEAEEFF1
:102D480016F0505009E1170E4F5CD8A0AEEF16F000
:102D5800B0EF16F0BAEF16F041C041F042C042F0B1
:102D680043C043F044C044F07DEF17F050BEBFEFBE
:102D780016F0C1EF16F031EF17F04FC045F0FF0E17
:102D8800466EFF0E476E7F0E486E000E496E456612
:102D9800D0EF16F0D8EF16F04934493248324732AE
:102DA8004632452ECBEF16F046C04BF047C04CF0EC
:102DB80048C04DF049C04EF04B505114456E4C5030
:102DC8005214466E4D505314476E4E505414486E6C
:102DD8004550461047104810D8A4F5EF16F0F7EF05
:102DE80016F0F9EF16F0B0EF16F051C045F052C0EA
:102DF80046F053C047F054C048F0200E09EF17F0D2
:102E0800D8904832473246324532E82E04EF17F060
:102E18004550461047104810D8B415EF17F017EF73
:102E280017F01FEF17F04B5051264C5052224D50BF
:102E380053224E5054224B1C456E4C1C466E4D1C62
:102E4800476E4E1C486E4550511646505216475014
:102E580053164850541675EF17F051C045F052C03C
:102E680046F053C047F054C048F0200E41EF17F029
:102E7800D8904832473246324532E82E3CEF17F0B8
:102E88004550461047104810D8A44DEF17F04FEFA3
:102E980017F059EF17F0000E516E000E526E000E2B
:102EA800536E000E546E75EF17F0D8905134456E7E
:102EB8005234466E5334476E5434486E455046106B
:102EC80047104810D8B46BEF17F06DEF17F075EF97
:102ED80017F0000E516E000E526E800E536EBF0E2C
:102EE800546E51C041F052C042F053C043F054C038
:102EF80044F01200096E0950D8B485EF17F087EF37
:102F080017F0A9EF17F004BE8EEF17F08CEF17F04B
:102F1800A9EF17F001C005F002C006F003C007F0E2
:102F280004C008F0051E061E071E081E052A000E0E
:102F380006220722082205C00BF006C00CF007C0C5
:102F48000DF008C00EF0B1EF17F001C00BF002C091
:102F58000CF003C00DF004C00EF001500210031075
:102F68000410D8A4BAEF17F0BCEF17F0C6EF17F0AB
:102F7800000E016E000E026E000E036E000E046E4F
:102F880057EF18F0960E0A6ED0EF17F00A2AD8906D
:102F98000E320D320C320B32000E0B14056E000E81
:102FA8000C14066E000E0D14076EFE0E0E14086E3D
:102FB8000550061007100810D8A4E5EF17F0E7EF42
:102FC80017F0CAEF17F0F5EF17F00A2A010E0B26D3
:102FD800000E0C220D220E22D8900E320D320C3229
:102FE8000B32000E0B14056E000E0C14066E000E4C
:102FF8000D14076EFF0E0E14086E0550061007100C
:103008000810D8A40AEF18F00CEF18F0E9EF17F041
:1030180014EF18F00A06D8900B360C360D360E361B
:103028000DBE19EF18F01BEF18F023EF18F0020E81
:103038000A6021EF18F023EF18F00EEF18F00AB02D
:1030480028EF18F02AEF18F02BEF18F00D9ED89003
:103058000A320AC005F0066A076A086A05C008F05D
:10306800076A066A056A05500B1206500C120750CB
:103078000D1208500E120950D8B445EF18F047EF5A
:1030880018F04FEF18F004BE4EEF18F04CEF18F0A0
:103098004FEF18F00E8E0BC001F00CC002F00DC0FF
:1030A80003F00EC004F01200000E166E000E156E2E
:1030B800000E0F6E000E0E6E64EF18F0084A092A13
:1030C800010E146E08C0F6FF09C0F7FF0800F5509E
:1030D800200AD8B472EF18F074EF18F091EF18F0D6
:1030E800F70E0A6EFF0E0B6E08C0F6FF09C0F7FF59
:1030F8000800F5500C6E0D6A0A500C260B500D2274
:103108000D5009E1050E0C5CD8A08DEF18F08FEF7B
:1031180018F091EF18F0000E146E14C010F0116A38
:1031280010501110D8A49BEF18F09DEF18F062EF23
:1031380018F0A7EF18F0000E0F6E010E0E6E084A79
:10314800092ADCEF18F008C0F6FF09C0F7FF0800ED
:10315800F5500A6E0B6A0B50000AD8B4B6EF18F097
:10316800DCEF18F00A502B0AD8B4A3EF18F0060ABF
:10317800D8B49FEF18F0DCEF18F015C001F016C0B6
:1031880002F0000E046E0A0E036E1CEC20F008C05C
:10319800F6FF09C0F7FF0800F550015E000E025A5D
:1031A800300E0124156E000E0220166EA3EF18F0E3
:1031B800D00E0A6EFF0E0B6E08C0F6FF09C0F7FFAF
:1031C8000800F5500C6E0D6A0A500C260B500D22A3
:1031D8000D500AE10A0E0C5CD8A0F5EF18F0F8EFD4
:1031E80018F0010EF9EF18F0000E126E136A125063
:1031F8001310D8A402EF19F004EF19F0C1EF18F07A
:103208000E500F10D8A40BEF19F00DEF19F01BEFAB
:1032180019F015C00AF016C00BF00A1E0B1E0A4A58
:103228000B2A0AC008F00BC009F01FEF19F015C0EF
:1032380008F016C009F012006BEC20F047EC1FF004
:103248000C0E64EC1FF0110E056E100E066E8BEC62
:103258001DF0010E056E000EC9EC1DF0010E056E85
:10326800100E066E8BEC1DF00B0E0001CA6F260EB9
:10327800C96F5D0EE82EFED7C92FFCD7CA2FFAD723
:1032880000D0010E64EC1FF0000E0001E06F000E8C
:10329800DF6F000E40EC20F079EC20F057EC20F0C6
:1032A8000009D8B45AEF19F05CEF19F052EF19F091
:1032B80061EC20F001C0DFF002C0E0F0000E136EF8
:1032C800000E146EA00E156E400E166EDFC001F0D3
:1032D800E0C002F0036A046A000E7EEC17F001C039
:1032E8000FF002C010F003C011F004C012F093EC0C
:1032F80012F00FC028F010C029F011C02AF012C037
:103308002BF0000E2C6EC00E2D6E7F0E2E6E440E0E
:103318002F6EA8EC14F028C0D3F029C0D4F02AC02E
:10332800D5F02BC0D6F0200E056E100E066E8BEC75
:103338001DF0E10E0001B76F000EB86F2A0EB96FCD
:10334800100EBA6FD3C0BBF0D4C0BCF0D5C0BDF06E
:10335800D6C0BEF091EC1EF0E10E056E000E066EB2
:103368008BEC1DF0430E056E100E066E8BEC1DF0F7
:10337800000E056E000EC9EC1DF048EF19F000EFC5
:1033880000F0033404340A6E0A50D8A4CEEF19F0C2
:10339800D0EF19F0DAEF19F0000E016E000E026E90
:1033A800000E036E000E046E47EF1AF001C005F020
:1033B80002C006F003C007F004C008F0200EEAEFD0
:1033C80019F0D8900832073206320532E82EE5EFB8
:1033D80019F00550096E038EFF0E0116FF0E021636
:1033E800FF0E0316000E0416960E0A5E0ABE01EFC3
:1033F8001AF0FFEF19F017EF1AF00A50800A970F2A
:10340800D8B009EF1AF00BEF1AF00DEF1AF0D0EF61
:1034180019F0D89004320332023201320A3E0DEF1D
:103428001AF02FEF1AF01F0E0A641DEF1AF01FEFA3
:103438001AF027EF1AF0D0EF19F0D89001360236BB
:10344800033604360A060A50D8A42DEF1AF02FEFD7
:103458001AF021EF1AF00950D8B435EF1AF037EF07
:103468001AF03FEF1AF0041E031E021E016C000E34
:1034780002220322042201C001F002C002F003C0AC
:1034880003F004C004F01200000E2814306E000E81
:103498002914316E800E2A14326E7F0E2B14336E6F
:1034A8003050311032103310D8A45DEF1AF05FEFAE
:1034B8001AF067EF1AF0000E286E000E296E000E43
:1034C8002A6E000E2B6E000E2C14306E000E2D147A
:1034D800316E800E2E14326E7F0E2F14336E3050E4
:1034E800311032103310D8A47CEF1AF07EEF1AF0A6
:1034F80086EF1AF0000E2C6E000E2D6E000E2E6E4A
:10350800000E2F6E2BAE8BEF1AF08DEF1AF096EFA0
:103518001AF0286C291ED8B0292A2A1ED8B02A2ABF
:10352800800E2B562FAE9BEF1AF09DEF1AF0A6EFE8
:103538001AF02C6C2D1ED8B02D2A2E1ED8B02E2A8B
:10354800800E2F56000E281A000E291A000E2A1A6D
:10355800800E2B1A000E2C1A000E2D1A000E2E1A91
:10356800800E2F1A2C50285C2D5029582E502A587E
:103578002F502B58D8B0C3EF1AF0C5EF1AF0C8EF88
:103588001AF0D890C9EF1AF0D8801200CFC00BF00B
:10359800D0C00CF0D1C00DF0D2C00EF001C00BF0BD
:1035A80002C00CF003C00DF004C00EF00BC005F013
:1035B8000CC006F00DC007F00EC008F0180EEAEFB8
:1035C8001AF0D8900832073206320532E82EE5EFB5
:1035D8001AF00550096E0A6A09500A10D8A4F7EFC4
:1035E8001AF0F9EF1AF019EF1BF0D8900B34056EAA
:1035F8000C34066E0D34076E0E34086E0550061036
:1036080007100810D8A40BEF1BF00DEF1BF013EFF9
:103618001BF0000E026E020E016E48EF1BF0000E4A
:10362800026E030E016E48EF1BF009280A10D8A499
:1036380020EF1BF022EF1BF044EF1BF00BC005F04E
:103648000CC006F00DC007F00EC008F0090ED890A7
:103658000536063607360836E82E2BEF1BF00550E0
:10366800061007100810D8B43CEF1BF03FEF1BF012
:10367800010E40EF1BF0000E016E026A48EF1BF0CE
:10368800000E026E040E016E120001C008F002C0A6
:1036980009F003C00AF004C00BF00506D8A006061E
:1036A800052806E10628D8A45CEF1BF05EEF1BF0A6
:1036B8006BEF1BF0000E026E000E016EB3EF1BF0F5
:1036C800084A092A0A4A0B2A0506D8A0060608C08D
:1036D800D9FF09C0DAFFDF50D8B475EF1BF077EFD8
:1036E8001BF0A2EF1BF00AC0F6FF0BC0F7FF0800A3
:1036F800F5500009D8B483EF1BF085EF1BF0A2EF5B
:103708001BF005500610D8B48CEF1BF08EEF1BF0A1
:10371800A2EF1BF008C0D9FF09C0DAFFDF50076E1F
:103728000AC0F6FF0BC0F7FF0800F5500718D8B419
:10373800A0EF1BF0A2EF1BF064EF1BF008C0D9FF4D
:1037480009C0DAFFDF50076E0AC0F6FF0BC0F7FFAB
:103758000800F550075C016E026AD8A00206120044
:1037680003500410D8B4BBEF1BF0BDEF1BF0C6EF3D
:103778001BF003500410D8A4C4EF1BF0C6EF1BF0D5
:10378800CBEF1BF001507BEC20F018EF1CF020EE83
:1037980004F00350D9260450DA22DE50DE10D8B4E3
:1037A800D8EF1BF0DAEF1BF0F5EF1BF020EE04F07A
:1037B8000350D9260450DA2210EE02F00350E12615
:1037C8000450E222DE50E65CE650800A096EDE50C4
:1037D800800A0958D8B0F3EF1BF0F5EF1BF018EF8B
:1037E8001CF020EE02F00350D9260450DA22DECF76
:1037F80005F0DDCF06F003C0D9FF04C0DAFFDECF45
:1038080007F0DDCF08F005500724D96E06500820D0
:10381800DA6E01C0DFFF20EE02F00350D926045013
:10382800DA22DE2A000EDD2212000001DDA11FEFE0
:103838001CF021EF1CF02BEF1CF013C00AF014C091
:103848000BF011C00CF012C00DF006EC1FF016BE04
:1038580030EF1CF032EF1CF038EF1CF015C01AF0F6
:1038680016C01BF03CEF1CF0000E1B6E000E1A6E0B
:10387800000E196E000E186E4EEF1CF0000E026E50
:10388800200E016E11C003F012C004F0B4EC1BF05E
:10389800184A192A1A50185C1950800A176E1B50BA
:1038A800800A1758D8A05BEF1CF05DEF1CF042EFC0
:1038B8001CF00001DDB163EF1CF065EF1CF06FEF49
:1038C8001CF013C00AF014C00BF011C00CF012C0A9
:1038D8000DF006EC1FF013C001F014C002F0D5EC97
:1038E8001FF01A500124116E1B500220126E120094
:1038F800000E066E04BE85EF1CF083EF1CF08BEF04
:103908001CF0036C041ED8B0042A010E066E02BE19
:1039180092EF1CF090EF1CF098EF1CF0016C021E67
:10392800D8B0022A010E061A000E086E000E076EA5
:1039380003500410D8B4A3EF1CF0A5EF1CF0CDEF92
:103948001CF0010E056EADEF1CF0D890033604365E
:10395800052A04AEB2EF1CF0B4EF1CF0A9EF1CF07E
:10396800D890073608360350015C04500258D8A096
:10397800C0EF1CF0C2EF1CF0C7EF1CF00350015E53
:103988000450025A0780D89004320332052EB4EF4F
:103998001CF00650D8B4D3EF1CF0D5EF1CF0D9EFCB
:1039A8001CF0076C081ED8B0082A07C001F008C030
:1039B80002F01200000E066E02BEE7EF1CF0E5EF03
:1039C8001CF0EDEF1CF0016C021ED8B0022A010EAB
:1039D800066E04BEF4EF1CF0F2EF1CF0F8EF1CF0DA
:1039E800036C041ED8B0042A03500410D8B4FFEFA7
:1039F8001CF001EF1DF025EF1DF0010E056E09EF1B
:103A08001DF0D89003360436052A04AE0EEF1DF0DB
:103A180010EF1DF005EF1DF00350015C0450025833
:103A2800D8A019EF1DF01BEF1DF01FEF1DF003507C
:103A3800015E0450025AD89004320332052E10EF6A
:103A48001DF00650D8B42BEF1DF02DEF1DF031EF0F
:103A58001DF0016C021ED8B0022A01C001F002C09C
:103A680002F01200000E0114096E000E02140A6E14
:103A7800800E03140B6E7F0E04140C6E09500A108E
:103A88000B100C10D8A44BEF1DF04DEF1DF055EFA7
:103A98001DF0000E016E000E026E000E036E000E89
:103AA800046E000E0514096E000E06140A6E800ED0
:103AB80007140B6E7F0E08140C6E09500A100B10B9
:103AC8000C10D8A46AEF1DF06CEF1DF074EF1DF018
:103AD800000E056E000E066E000E076E000E086ED4
:103AE800055001180FE1065002180CE107500318A1
:103AF80009E108500418D8B484EF1DF086EF1DF0D2
:103B080089EF1DF0D8908AEF1DF0D8801200000EC2
:103B1800096EA9EF1DF009500524076E000E062056
:103B2800086E07C0F6FF08C0F7FF000EF86E0F0E0C
:103B3800F76403D00800F55005D0F6CFE1FFF7CFC2
:103B4800E2FFE750F0EC1FF0092A09500524076E40
:103B5800000E0620086E07C0F6FF08C0F7FF000E2B
:103B6800F86E0F0EF76403D00800F55005D0F6CFB5
:103B7800E1FFF7CFE2FFE7500009D8A4C6EF1DF038
:103B8800C8EF1DF08FEF1DF012000A6E020E0560DF
:103B9800D0EF1DF0D2EF1DF000EF1EF00F0E0A64FB
:103BA800D8EF1DF0DAEF1DF0DCEF1DF000EF1EF08E
:103BB8000504D8B4E2EF1DF0E4EF1DF0EEEF1DF0C0
:103BC800800E0AC006F0076A0610086E0750096ED4
:103BD800F6EF1DF0C00E0AC006F0076A0610086E60
:103BE8000750096E085064EC1FF00D0E066EFC0EAF
:103BF800E82EFED7062EFCD71200B1C0B5F0B2C031
:103C0800B6F0000E0001D86F000ED76F1FEF1EF040
:103C1800AFC09DF0B0C09EF0B50E9F6F000EA06FB4
:103C2800B3C0A1F0B4C0A2F05CEC10F000019D514B
:103C3800D7279E51D823B5C0F6FFB6C0F7FF0800B6
:103C4800F5500009D8A42BEF1EF02DEF1EF00CEF55
:103C58001EF0D7C0AFF0D8C0B0F01200BF0E096E8A
:103C6800FF0E0A6E07C00BF008C00CF009500B26B7
:103C78000A500C220C500AE11A0E0B5CD8A047EF30
:103C88001EF04AEF1EF0010E4BEF1EF0000E0D6EF7
:103C98000E6A0D500E10D8B454EF1EF056EF1EF0F9
:103CA8005DEF1EF0200E0710076E0850086E61EFDA
:103CB8001EF007C007F008C008F0120003C007F0A4
:103CC80004C008F001C009F002C00AF00750056EF0
:103CD8000850066E074A082A05C0F6FF06C0F7FF17
:103CE800000EF86E09C0D9FF0AC0DAFF094A0A2A8D
:103CF8000F0EF76403D00800F55005D0F6CFE1FFAA
:103D0800F7CFE2FFE750DF6EDF50D8A48EEF1EF04A
:103D180090EF1EF06AEF1EF01200BB0E0001C16F9B
:103D2800000EC26FB7C0C3F0B8C0C4F0000EC66FB3
:103D3800000EC56F000EC86F000EC76FC30EAF6FC1
:103D4800000EB06FB9C0B1F0BAC0B2F0C10EB36F17
:103D5800000EB46F01EC1EF00001C551B725D96EF5
:103D6800C651B821DA6E000EDF6E1200010E076E22
:103D7800200E01180210D8B4C4EF1EF0C6EF1EF0D2
:103D8800DFEF1EF0F70E036EFF0E046E01C005F0A4
:103D980002C006F00350052604500622065009E129
:103DA800050E055CD8A0DBEF1EF0DDEF1EF0DFEF9F
:103DB8001EF0000E076E07C001F0026A1200000E26
:103DC8002C1A000E2D1A000E2E1A800E2F1A28C03B
:103DD80001F029C002F02AC003F02BC004F02CC067
:103DE80005F02DC006F02EC007F02FC008F0FCEC3F
:103DF8000DF001C028F002C029F003C02AF004C069
:103E08002BF01200000E106E000E0F6E17EF1FF051
:103E18000EC001F0026A0CC003F00DC004F0B4EC4F
:103E28001BF00F4A102A0F500A24D96E10500B208D
:103E3800DA6EDF500E6E0E50D8A425EF1FF027EF74
:103E48001FF00CEF1FF01200000E8D6E000E8C6E2E
:103E5800000E896E000E8A6E000E8B6E070E966E2F
:103E68009268000E936E946895680F013B69FC0E8A
:103E78003A6F000E396F070E3C6F2F0E386F000E29
:103E8800616EF18E1200000E816E000E936E818EAF
:103E9800270E056EF50EE82EFED7052EFCD700F08E
:103EA800320E64EC1FF0280E64EC1FF00C0E64EC6C
:103EB8001FF0010E64EC1FF0060E64EC1FF01200F8
:103EC800046E0D0E036EFC0EE82EFED7032EFCD7F3
:103ED800000E016E045006EC20F00438F00B046E5E
:103EE800030E036E980EE82EFED7032EFCD7000EA5
:103EF800016E045006EC20F01200BF0E036EFF0E98
:103F0800046E01C005F002C006F0035005260450F7
:103F1800062206500AE11A0E055CD8A096EF1FF09B
:103F280099EF1FF0010E9AEF1FF0000E016E026A62
:103F380012000150021003100410D8B4A6EF1FF0AD
:103F4800A8EF1FF0B0EF1FF0000E011A000E021AC2
:103F5800000E031A800E041A01C001F002C002F01C
:103F680003C003F004C004F01200D00E036EFF0E6D
:103F7800046E01C005F002C006F003500526045087
:103F8800062206500AE10A0E055CD8A0CEEF1FF003
:103F9800D1EF1FF0010ED2EF1FF0000E016E026A82
:103FA800120001C003F002C004F0DDEF1FF0014A67
:103FB800022A01C0D9FF02C0DAFFDF50D8A4E7EF18
:103FC8001FF0E9EF1FF0DBEF1FF00350015C016EFB
:103FD80004500258026E1200046E0D0E036EFC0EA1
:103FE800E82EFED7032EFCD7010E016E045006EC16
:103FF80020F00438F00B046E010E016E045006EC3C
:1040080020F01200026E02380F0B026E02500F0BE6
:10401800026E8150F00B816E81500210816E01B0EA
:1040280002D0819801D08188819A818C819C12006C
:1040380001500302F3CF05F0F4CF06F0015004025B
:10404800F350062602500302F350062605C001F07D
:1040580006C002F0120001EE00F0500EEE6AE8060B
:10406800FDE100EECBF02A0EEE6AE806FDE1000E57
:10407800F86E000120EF19F0026E02C001F001464F
:104088000146C2500118830B0118C26EC28012008B
:10409800010EC26E000EC16E880EC06E000EC36E99
:1040A800000EC46E1200C2A25CEF20F05FEF20F099
:1040B800010E60EF20F0000E1200C450046E036A77
:1040C800C3500324016E000E0420026E120028EC77
:1040D8001FF072EC20F04CEC20F01200600ED36E52
:1040E800040ED26E000E9B6E1200C28212001200E5
:020000040020DA
:08000000FFFFFFFFFFFFFFFF00
:020000040030CA
:0E000000FF281F3CFFBD85FF0FC00FE00F4023
:00000001FF
