:100000000428FF3FFF3FFF3F0313831686010130A3
:10001000831286000230FC00FF30FB00FF30FA0044
:10002000FC0B13281A28FB0B16281928FA0B162884
:10003000132810280630FB00FF30FA00FB0B2128A4
:100040002428FA0B21281E280A30FA00FA0B262849
:10005000023086000230FC00FF30FB00FF30FA0067
:10006000FC0B33283A28FB0B36283928FA0B3628A4
:10007000332830280630FB00FF30FA00FB0B412804
:100080004428FA0B41283E280A30FA00FA0B462889
:10009000043086000230FC00FF30FB00FF30FA0025
:1000A000FC0B53285A28FB0B56285928FA0B5628C4
:1000B000532850280630FB00FF30FA00FB0B612864
:1000C0006428FA0B61285E280A30FA00FA0B6628C9
:1000D000083086000230FC00FF30FB00FF30FA00E1
:1000E000FC0B73287A28FB0B76287928FA0B7628E4
:1000F000732870280630FB00FF30FA00FB0B8128C4
:100100008428FA0B81287E280A30FA00FA0B862808
:10011000103086000230FC00FF30FB00FF30FA0098
:10012000FC0B93289A28FB0B96289928FA0B962803
:10013000932890280630FB00FF30FA00FB0BA12823
:10014000A428FA0BA1289E280A30FA00FA0BA62848
:10015000203086000230FC00FF30FB00FF30FA0048
:10016000FC0BB328BA28FB0BB628B928FA0BB62823
:10017000B328B0280630FB00FF30FA00FB0BC12883
:10018000C428FA0BC128BE280A30FA00FA0BC62888
:10019000403086000230FC00FF30FB00FF30FA00E8
:1001A000FC0BD328DA28FB0BD628D928FA0BD62843
:1001B000D328D0280630FB00FF30FA00FB0BE128E3
:1001C000E428FA0BE128DE280A30FA00FA0BE628C8
:1001D000803086000230FC00FF30FB00FF30FA0068
:1001E000FC0BF328FA28FB0BF628F928FA0BF62863
:1001F000F328F0280630FB00FF30FA00FB0B012942
:100200000429FA0B0129FE280A30FA00FA0B062904
:10021000403086000230FC00FF30FB00FF30FA0067
:10022000FC0B13291A29FB0B16291929FA0B16297D
:10023000132910290630FB00FF30FA00FB0B21299F
:100240002429FA0B21291E290A30FA00FA0B262943
:10025000203086000230FC00FF30FB00FF30FA0047
:10026000FC0B33293A29FB0B36293929FA0B36299D
:10027000332930290630FB00FF30FA00FB0B4129FF
:100280004429FA0B41293E290A30FA00FA0B462983
:10029000103086000230FC00FF30FB00FF30FA0017
:1002A000FC0B53295A29FB0B56295929FA0B5629BD
:1002B000532950290630FB00FF30FA00FB0B61295F
:1002C0006429FA0B61295E290A30FA00FA0B6629C3
:1002D000083086000230FC00FF30FB00FF30FA00DF
:1002E000FC0B73297A29FB0B76297929FA0B7629DD
:1002F000732970290630FB00FF30FA00FB0B8129BF
:100300008429FA0B81297E290A30FA00FA0B862902
:10031000043086000230FC00FF30FB00FF30FA00A2
:10032000FC0B93299A29FB0B96299929FA0B9629FC
:10033000932990290630FB00FF30FA00FB0BA1291E
:10034000A429FA0BA1299E290A30FA00FA0BA62942
:10035000023086000230FC00FF30FB00FF30FA0064
:10036000FC0BB329BA29FB0BB629B929FA0BB6291C
:10037000B329B0290630FB00FF30FA00FB0BC1297E
:10038000C429FA0BC129BE290A30FA00FA0BC62982
:10039000013086000230FC00FF30FB00FF30FA0025
:1003A000FC0BD329DA29FB0BD629D929FA0BD6293C
:1003B000D329D0290630FB00FF30FA00FB0BE129DE
:1003C000E429FA0BE129DE290A30FA00FA0BE629C2
:1003D000E829FF3FFF3FFF3FFF3FFF3FFF3FFF3F5A
:02400E00FFFFB2
:00000001FF
