:020000040000FA
:04000000C7EF08F04E
:101000000068656C6C6F2F6E2F7200009390939642
:1010100091EC08F0410EAAEC08F0150E056E4B0E8F
:10102000046EBE0EE82EFED7042EFCD7052EFAD78E
:1010300000D0BDEC08F0066E0650AAEC08F05FEF99
:1010400008F08A808A960B0E056E260E046E5E0EE0
:10105000E82EFED7042EFCD7052EFAD78A900B0E69
:10106000056E260E046E5E0EE82EFED7042EFCD70B
:10107000052EFAD70AEF08F08A868A900B0E056EC5
:10108000260E046E5E0EE82EFED7042EFCD7052E2B
:10109000FAD78A960B0E056E260E046E5E0EE82EAB
:1010A000FED7042EFCD7052EFAD70AEF08F0010E62
:1010B000026E100E036E76EC08F00AEF08F0065090
:1010C000046E056A0550000AD8B469EF08F057EFBE
:1010D00008F00450310AD8B421EF08F0030AD8B45C
:1010E0003CEF08F057EF08F000EF00F082EF08F057
:1010F00002C0F6FF03C0F7FF0800F550AAEC08F0A5
:10110000024A032A02C0F6FF03C0F7FF0800F550A9
:101110000009D8A48EEF08F090EF08F078EF08F0FF
:101120001200080EB86E440EAF6E010EB06EAC9891
:10113000AC9CAC8AAC84AB8EAB9CAB880F013A9D67
:101140003A9F948C948E92909E9A9D8A9F8AD08E7C
:10115000F28C1200016E89809EA8B1EF08F0B3EF07
:1011600008F0ACEF08F0ACA2B8EF08F0BAEF08F066
:10117000B3EF08F001C0ADFF120089909EAAC3EF43
:1011800008F0C5EF08F0BEEF08F0AE501200000EF8
:08119000F86E000106EF08F003
:020000040020DA
:08000000FFFFFFFFFFFFFFFF00
:020000040030CA
:0E000000FF231B3FFFBF81FF0FC00FE00F402B
:00000001FF
