:100000000428FF3FFF3FFF3F0313831686010130A3
:10001000831286000614061506160617861086112A
:10002000861286130B30FC00FF30FB00FF30FA0015
:10003000FC0B1B282228FB0B1E282128FA0B1E284C
:100040001B2818283330FB00FF30FA00FB0B29284F
:100050002C28FA0B292826288830FA00FA0B2E289B
:1000600006100611061206138614861586168617C4
:100070000B30FC00FF30FB00FF30FA00FC0B412886
:100080004828FB0B44284728FA0B442841283E28DF
:100090003330FB00FF30FA00FB0B4F285228FA0BDD
:1000A0004F284C288830FA00FA0B54285628FF3F76
:02400E00FFFFB2
:00000001FF
