:020000040000FA
:0400000081EF7FF01D
:10FF0200000EF86E0001C9EF7FF0620ED36E040E90
:10FF1200D26E000E9B6E1200400EC76E240EC66E8D
:10FF2200000ECB6E1200A9EC7FF086EC7FF08DEC18
:10FF32007FF01200026EC950C69E02C0C9FFC7A060
:10FF4200A5EF7FF0A7EF7FF0A0EF7FF0C95012007E
:10FF5200000E8D6E000E8C6E000E896E000E8A6E83
:10FF6200000E8B6E070E966E9268F80E936EDF0E81
:10FF7200946E95680F013B69C40E3A6F380E396F63
:10FF8200070E3C6F0F0E386F000E616EF18E12007D
:10FF920094EC7FF0000E9BEC7FF0056EE5EF7FF0B6
:10FFA2008A808A928A94CBEF7FF08A908A828A949E
:10FFB200CBEF7FF08A908A928A84CBEF7FF08A908F
:10FFC2008A928A94CBEF7FF00550036E046A045044
:10FFD200000AD8B4EFEF7FF0E0EF7FF00350310A70
:10FFE200D8B4D1EF7FF0030AD8B4D6EF7FF0010A7C
:0EFFF200D8B4DBEF7FF0E0EF7FF000EF00F01F
:020000040020DA
:08000000FFFFFFFFFFFFFFFF00
:020000040030CA
:0E000000FF281F3CFFBF85FF0FC00FE00F4021
:00000001FF
